{
  "contractName": "Fundraiser",
  "abi": [
    {
      "inputs": [
        {
          "internalType": "string",
          "name": "_name",
          "type": "string"
        },
        {
          "internalType": "string",
          "name": "_image",
          "type": "string"
        },
        {
          "internalType": "string",
          "name": "_description",
          "type": "string"
        },
        {
          "internalType": "uint256",
          "name": "_goalAmount",
          "type": "uint256"
        },
        {
          "internalType": "address",
          "name": "_custodian",
          "type": "address"
        }
      ],
      "stateMutability": "nonpayable",
      "type": "constructor"
    },
    {
      "anonymous": false,
      "inputs": [
        {
          "indexed": true,
          "internalType": "address",
          "name": "donor",
          "type": "address"
        },
        {
          "indexed": false,
          "internalType": "uint256",
          "name": "value",
          "type": "uint256"
        },
        {
          "indexed": true,
          "internalType": "uint256",
          "name": "date",
          "type": "uint256"
        },
        {
          "indexed": false,
          "internalType": "string",
          "name": "fundName",
          "type": "string"
        },
        {
          "indexed": true,
          "internalType": "address",
          "name": "ngoAddress",
          "type": "address"
        }
      ],
      "name": "DonationReceived",
      "type": "event"
    },
    {
      "anonymous": false,
      "inputs": [
        {
          "indexed": true,
          "internalType": "address",
          "name": "previousOwner",
          "type": "address"
        },
        {
          "indexed": true,
          "internalType": "address",
          "name": "newOwner",
          "type": "address"
        }
      ],
      "name": "OwnershipTransferred",
      "type": "event"
    },
    {
      "anonymous": false,
      "inputs": [
        {
          "indexed": true,
          "internalType": "address",
          "name": "beneficiary",
          "type": "address"
        },
        {
          "indexed": false,
          "internalType": "uint256",
          "name": "value",
          "type": "uint256"
        },
        {
          "indexed": true,
          "internalType": "address",
          "name": "ngoAddress",
          "type": "address"
        },
        {
          "indexed": false,
          "internalType": "string",
          "name": "fundName",
          "type": "string"
        },
        {
          "indexed": true,
          "internalType": "uint256",
          "name": "date",
          "type": "uint256"
        }
      ],
      "name": "RequestApproved",
      "type": "event"
    },
    {
      "anonymous": false,
      "inputs": [
        {
          "indexed": true,
          "internalType": "address",
          "name": "beneficiary",
          "type": "address"
        },
        {
          "indexed": false,
          "internalType": "uint256",
          "name": "value",
          "type": "uint256"
        },
        {
          "indexed": true,
          "internalType": "address",
          "name": "ngoAddress",
          "type": "address"
        },
        {
          "indexed": false,
          "internalType": "string",
          "name": "fundName",
          "type": "string"
        },
        {
          "indexed": true,
          "internalType": "uint256",
          "name": "date",
          "type": "uint256"
        }
      ],
      "name": "RequestCreated",
      "type": "event"
    },
    {
      "anonymous": false,
      "inputs": [
        {
          "indexed": true,
          "internalType": "address",
          "name": "beneficiary",
          "type": "address"
        },
        {
          "indexed": false,
          "internalType": "uint256",
          "name": "value",
          "type": "uint256"
        },
        {
          "indexed": true,
          "internalType": "address",
          "name": "ngoAddress",
          "type": "address"
        },
        {
          "indexed": false,
          "internalType": "string",
          "name": "fundName",
          "type": "string"
        },
        {
          "indexed": true,
          "internalType": "uint256",
          "name": "date",
          "type": "uint256"
        }
      ],
      "name": "RequestRejected",
      "type": "event"
    },
    {
      "inputs": [
        {
          "internalType": "uint256",
          "name": "",
          "type": "uint256"
        }
      ],
      "name": "_requests",
      "outputs": [
        {
          "internalType": "uint256",
          "name": "amount",
          "type": "uint256"
        },
        {
          "internalType": "address payable",
          "name": "beneficiary",
          "type": "address"
        },
        {
          "internalType": "address",
          "name": "ngoAddress",
          "type": "address"
        },
        {
          "internalType": "enum Fundraiser.RequestStatus",
          "name": "status",
          "type": "uint8"
        }
      ],
      "stateMutability": "view",
      "type": "function"
    },
    {
      "inputs": [
        {
          "internalType": "address",
          "name": "",
          "type": "address"
        },
        {
          "internalType": "uint256",
          "name": "",
          "type": "uint256"
        }
      ],
      "name": "_userDonations",
      "outputs": [
        {
          "internalType": "uint256",
          "name": "value",
          "type": "uint256"
        },
        {
          "internalType": "uint256",
          "name": "date",
          "type": "uint256"
        },
        {
          "internalType": "address",
          "name": "donor",
          "type": "address"
        },
        {
          "internalType": "string",
          "name": "fundName",
          "type": "string"
        },
        {
          "internalType": "address",
          "name": "ngoAddress",
          "type": "address"
        }
      ],
      "stateMutability": "view",
      "type": "function"
    },
    {
      "inputs": [],
      "name": "description",
      "outputs": [
        {
          "internalType": "string",
          "name": "",
          "type": "string"
        }
      ],
      "stateMutability": "view",
      "type": "function"
    },
    {
      "inputs": [],
      "name": "donationsCount",
      "outputs": [
        {
          "internalType": "uint256",
          "name": "",
          "type": "uint256"
        }
      ],
      "stateMutability": "view",
      "type": "function"
    },
    {
      "inputs": [],
      "name": "fundName",
      "outputs": [
        {
          "internalType": "string",
          "name": "",
          "type": "string"
        }
      ],
      "stateMutability": "view",
      "type": "function"
    },
    {
      "inputs": [],
      "name": "goalAmount",
      "outputs": [
        {
          "internalType": "uint256",
          "name": "",
          "type": "uint256"
        }
      ],
      "stateMutability": "view",
      "type": "function"
    },
    {
      "inputs": [],
      "name": "image",
      "outputs": [
        {
          "internalType": "string",
          "name": "",
          "type": "string"
        }
      ],
      "stateMutability": "view",
      "type": "function"
    },
    {
      "inputs": [],
      "name": "ngoAddress",
      "outputs": [
        {
          "internalType": "address",
          "name": "",
          "type": "address"
        }
      ],
      "stateMutability": "view",
      "type": "function"
    },
    {
      "inputs": [],
      "name": "owner",
      "outputs": [
        {
          "internalType": "address",
          "name": "",
          "type": "address"
        }
      ],
      "stateMutability": "view",
      "type": "function"
    },
    {
      "inputs": [],
      "name": "renounceOwnership",
      "outputs": [],
      "stateMutability": "nonpayable",
      "type": "function"
    },
    {
      "inputs": [],
      "name": "totalDonations",
      "outputs": [
        {
          "internalType": "uint256",
          "name": "",
          "type": "uint256"
        }
      ],
      "stateMutability": "view",
      "type": "function"
    },
    {
      "inputs": [
        {
          "internalType": "address",
          "name": "newOwner",
          "type": "address"
        }
      ],
      "name": "transferOwnership",
      "outputs": [],
      "stateMutability": "nonpayable",
      "type": "function"
    },
    {
      "inputs": [],
      "name": "myDonationsCount",
      "outputs": [
        {
          "internalType": "uint256",
          "name": "",
          "type": "uint256"
        }
      ],
      "stateMutability": "view",
      "type": "function"
    },
    {
      "inputs": [],
      "name": "donate",
      "outputs": [],
      "stateMutability": "payable",
      "type": "function"
    },
    {
      "inputs": [],
      "name": "allRequests",
      "outputs": [
        {
          "internalType": "uint256[]",
          "name": "requestID",
          "type": "uint256[]"
        },
        {
          "internalType": "uint256[]",
          "name": "amounts",
          "type": "uint256[]"
        },
        {
          "internalType": "address[]",
          "name": "beneficiaries",
          "type": "address[]"
        },
        {
          "internalType": "address[]",
          "name": "ngoAddresses",
          "type": "address[]"
        },
        {
          "internalType": "enum Fundraiser.RequestStatus[]",
          "name": "statuses",
          "type": "uint8[]"
        }
      ],
      "stateMutability": "view",
      "type": "function"
    },
    {
      "inputs": [],
      "name": "myDonations",
      "outputs": [
        {
          "internalType": "uint256[]",
          "name": "values",
          "type": "uint256[]"
        },
        {
          "internalType": "uint256[]",
          "name": "dates",
          "type": "uint256[]"
        },
        {
          "internalType": "string[]",
          "name": "fundNames",
          "type": "string[]"
        },
        {
          "internalType": "address[]",
          "name": "ngoAddresses",
          "type": "address[]"
        }
      ],
      "stateMutability": "view",
      "type": "function"
    },
    {
      "inputs": [
        {
          "internalType": "address payable",
          "name": "_beneficiary",
          "type": "address"
        },
        {
          "internalType": "uint256",
          "name": "_requestAmount",
          "type": "uint256"
        }
      ],
      "name": "createRequest",
      "outputs": [],
      "stateMutability": "nonpayable",
      "type": "function"
    },
    {
      "inputs": [
        {
          "internalType": "uint256",
          "name": "requestId",
          "type": "uint256"
        }
      ],
      "name": "approveRequest",
      "outputs": [],
      "stateMutability": "nonpayable",
      "type": "function"
    },
    {
      "inputs": [
        {
          "internalType": "uint256",
          "name": "requestId",
          "type": "uint256"
        }
      ],
      "name": "rejectRequest",
      "outputs": [],
      "stateMutability": "nonpayable",
      "type": "function"
    }
  ],
  "bytecode": "0x60806040523480156200001157600080fd5b50604051620032f8380380620032f8833981810160405281019062000037919062000329565b620000576200004b6200010d60201b60201c565b6200011560201b60201c565b60018081905550846004908051906020019062000076929190620001d9565b5083600590805190602001906200008f929190620001d9565b508260069080519060200190620000a8929190620001d9565b5080600960006101000a81548173ffffffffffffffffffffffffffffffffffffffff021916908373ffffffffffffffffffffffffffffffffffffffff1602179055508160078190555062000102816200011560201b60201c565b505050505062000599565b600033905090565b60008060009054906101000a900473ffffffffffffffffffffffffffffffffffffffff169050816000806101000a81548173ffffffffffffffffffffffffffffffffffffffff021916908373ffffffffffffffffffffffffffffffffffffffff1602179055508173ffffffffffffffffffffffffffffffffffffffff168173ffffffffffffffffffffffffffffffffffffffff167f8be0079c531659141344cd1fd0a4f28419497f9722a3daafe3b4186f6b6457e060405160405180910390a35050565b828054620001e790620004d1565b90600052602060002090601f0160209004810192826200020b576000855562000257565b82601f106200022657805160ff191683800117855562000257565b8280016001018555821562000257579182015b828111156200025657825182559160200191906001019062000239565b5b5090506200026691906200026a565b5090565b5b80821115620002855760008160009055506001016200026b565b5090565b6000620002a06200029a846200042a565b620003f6565b905082815260208101848484011115620002b957600080fd5b620002c68482856200049b565b509392505050565b600081519050620002df8162000565565b92915050565b600082601f830112620002f757600080fd5b81516200030984826020860162000289565b91505092915050565b60008151905062000323816200057f565b92915050565b600080600080600060a086880312156200034257600080fd5b600086015167ffffffffffffffff8111156200035d57600080fd5b6200036b88828901620002e5565b955050602086015167ffffffffffffffff8111156200038957600080fd5b6200039788828901620002e5565b945050604086015167ffffffffffffffff811115620003b557600080fd5b620003c388828901620002e5565b9350506060620003d68882890162000312565b9250506080620003e988828901620002ce565b9150509295509295909350565b6000604051905081810181811067ffffffffffffffff8211171562000420576200041f62000536565b5b8060405250919050565b600067ffffffffffffffff82111562000448576200044762000536565b5b601f19601f8301169050602081019050919050565b60006200046a8262000471565b9050919050565b600073ffffffffffffffffffffffffffffffffffffffff82169050919050565b6000819050919050565b60005b83811015620004bb5780820151818401526020810190506200049e565b83811115620004cb576000848401525b50505050565b60006002820490506001821680620004ea57607f821691505b6020821081141562000501576200050062000507565b5b50919050565b7f4e487b7100000000000000000000000000000000000000000000000000000000600052602260045260246000fd5b7f4e487b7100000000000000000000000000000000000000000000000000000000600052604160045260246000fd5b62000570816200045d565b81146200057c57600080fd5b50565b6200058a8162000491565b81146200059657600080fd5b50565b612d4f80620005a96000396000f3fe6080604052600436106101145760003560e01c80639ce1413b116100a0578063de2ed89311610064578063de2ed8931461038d578063ed88c68e146103b8578063edc08925146103c2578063f2fde38b146103eb578063f3ccaac01461041457610114565b80639ce1413b1461028d578063bff60c0f146102b8578063ccf179b0146102f8578063d251e51d14610323578063d7d1bbdb1461036457610114565b80632d7788db116100e75780632d7788db146101c8578063715018a6146101f15780637284e416146102085780638a4473a9146102335780638da5cb5b1461026257610114565b80630180b97c146101195780631a57f7b4146101445780631f522595146101725780632636b9451461019d575b600080fd5b34801561012557600080fd5b5061012e61043f565b60405161013b9190612867565b60405180910390f35b34801561015057600080fd5b50610159610489565b6040516101699493929190612704565b60405180910390f35b34801561017e57600080fd5b50610187610911565b6040516101949190612867565b60405180910390f35b3480156101a957600080fd5b506101b2610917565b6040516101bf9190612867565b60405180910390f35b3480156101d457600080fd5b506101ef60048036038101906101ea919061211e565b61091d565b005b3480156101fd57600080fd5b50610206610b88565b005b34801561021457600080fd5b5061021d610b9c565b60405161022a9190612765565b60405180910390f35b34801561023f57600080fd5b50610248610c2a565b60405161025995949392919061268e565b60405180910390f35b34801561026e57600080fd5b5061027761116e565b6040516102849190612673565b60405180910390f35b34801561029957600080fd5b506102a2611197565b6040516102af9190612765565b60405180910390f35b3480156102c457600080fd5b506102df60048036038101906102da919061211e565b611225565b6040516102ef9493929190612882565b60405180910390f35b34801561030457600080fd5b5061030d6112b2565b60405161031a9190612673565b60405180910390f35b34801561032f57600080fd5b5061034a600480360381019061034591906120e2565b6112d8565b60405161035b9594939291906128f7565b60405180910390f35b34801561037057600080fd5b5061038b6004803603810190610386919061211e565b6113f3565b005b34801561039957600080fd5b506103a2611788565b6040516103af9190612867565b60405180910390f35b6103c061178e565b005b3480156103ce57600080fd5b506103e960048036038101906103e491906120a6565b611a7c565b005b3480156103f757600080fd5b50610412600480360381019061040d919061207d565b611d13565b005b34801561042057600080fd5b50610429611d97565b6040516104369190612765565b60405180910390f35b6000600260003373ffffffffffffffffffffffffffffffffffffffff1673ffffffffffffffffffffffffffffffffffffffff16815260200190815260200160002080549050905090565b606080606080600061049961043f565b90508067ffffffffffffffff8111156104db577f4e487b7100000000000000000000000000000000000000000000000000000000600052604160045260246000fd5b6040519080825280602002602001820160405280156105095781602001602082028036833780820191505090505b5094508067ffffffffffffffff81111561054c577f4e487b7100000000000000000000000000000000000000000000000000000000600052604160045260246000fd5b60405190808252806020026020018201604052801561057a5781602001602082028036833780820191505090505b5093508067ffffffffffffffff8111156105bd577f4e487b7100000000000000000000000000000000000000000000000000000000600052604160045260246000fd5b6040519080825280602002602001820160405280156105f057816020015b60608152602001906001900390816105db5790505b5092508067ffffffffffffffff811115610633577f4e487b7100000000000000000000000000000000000000000000000000000000600052604160045260246000fd5b6040519080825280602002602001820160405280156106615781602001602082028036833780820191505090505b50915060005b81811015610909576000600260003373ffffffffffffffffffffffffffffffffffffffff1673ffffffffffffffffffffffffffffffffffffffff16815260200190815260200160002082815481106106e8577f4e487b7100000000000000000000000000000000000000000000000000000000600052603260045260246000fd5b906000526020600020906005020190508060000154878381518110610736577f4e487b7100000000000000000000000000000000000000000000000000000000600052603260045260246000fd5b6020026020010181815250508060010154868381518110610780577f4e487b7100000000000000000000000000000000000000000000000000000000600052603260045260246000fd5b60200260200101818152505080600301805461079b90612ba7565b80601f01602080910402602001604051908101604052809291908181526020018280546107c790612ba7565b80156108145780601f106107e957610100808354040283529160200191610814565b820191906000526020600020905b8154815290600101906020018083116107f757829003601f168201915b5050505050858381518110610852577f4e487b7100000000000000000000000000000000000000000000000000000000600052603260045260246000fd5b60200260200101819052508060040160009054906101000a900473ffffffffffffffffffffffffffffffffffffffff168483815181106108bb577f4e487b7100000000000000000000000000000000000000000000000000000000600052603260045260246000fd5b602002602001019073ffffffffffffffffffffffffffffffffffffffff16908173ffffffffffffffffffffffffffffffffffffffff168152505050808061090190612bd9565b915050610667565b505090919293565b600a5481565b60075481565b610925611e25565b600380549050811061096c576040517f08c379a000000000000000000000000000000000000000000000000000000000815260040161096390612847565b60405180910390fd5b6000600382815481106109a8577f4e487b7100000000000000000000000000000000000000000000000000000000600052603260045260246000fd5b90600052602060002090600302019050600060028111156109f2577f4e487b7100000000000000000000000000000000000000000000000000000000600052602160045260246000fd5b8160020160149054906101000a900460ff166002811115610a3c577f4e487b7100000000000000000000000000000000000000000000000000000000600052602160045260246000fd5b14610a7c576040517f08c379a0000000000000000000000000000000000000000000000000000000008152600401610a73906127a7565b60405180910390fd5b60028160020160146101000a81548160ff02191690836002811115610aca577f4e487b7100000000000000000000000000000000000000000000000000000000600052602160045260246000fd5b0217905550428160020160009054906101000a900473ffffffffffffffffffffffffffffffffffffffff1673ffffffffffffffffffffffffffffffffffffffff168260010160009054906101000a900473ffffffffffffffffffffffffffffffffffffffff1673ffffffffffffffffffffffffffffffffffffffff167f592da2f7c068823877ad9923447991ff1ee3158fbbd064f0fcc896847bc048e384600001546004604051610b7c9291906128c7565b60405180910390a45050565b610b90611e25565b610b9a6000611ea3565b565b60068054610ba990612ba7565b80601f0160208091040260200160405190810160405280929190818152602001828054610bd590612ba7565b8015610c225780601f10610bf757610100808354040283529160200191610c22565b820191906000526020600020905b815481529060010190602001808311610c0557829003601f168201915b505050505081565b6060806060806060600060038054905090508067ffffffffffffffff811115610c7c577f4e487b7100000000000000000000000000000000000000000000000000000000600052604160045260246000fd5b604051908082528060200260200182016040528015610caa5781602001602082028036833780820191505090505b5095508067ffffffffffffffff811115610ced577f4e487b7100000000000000000000000000000000000000000000000000000000600052604160045260246000fd5b604051908082528060200260200182016040528015610d1b5781602001602082028036833780820191505090505b5094508067ffffffffffffffff811115610d5e577f4e487b7100000000000000000000000000000000000000000000000000000000600052604160045260246000fd5b604051908082528060200260200182016040528015610d8c5781602001602082028036833780820191505090505b5093508067ffffffffffffffff811115610dcf577f4e487b7100000000000000000000000000000000000000000000000000000000600052604160045260246000fd5b604051908082528060200260200182016040528015610dfd5781602001602082028036833780820191505090505b5092508067ffffffffffffffff811115610e40577f4e487b7100000000000000000000000000000000000000000000000000000000600052604160045260246000fd5b604051908082528060200260200182016040528015610e6e5781602001602082028036833780820191505090505b50915060005b8181101561116557600060038281548110610eb8577f4e487b7100000000000000000000000000000000000000000000000000000000600052603260045260246000fd5b9060005260206000209060030201905081888381518110610f02577f4e487b7100000000000000000000000000000000000000000000000000000000600052603260045260246000fd5b6020026020010181815250508060000154878381518110610f4c577f4e487b7100000000000000000000000000000000000000000000000000000000600052603260045260246000fd5b6020026020010181815250508060010160009054906101000a900473ffffffffffffffffffffffffffffffffffffffff16868381518110610fb6577f4e487b7100000000000000000000000000000000000000000000000000000000600052603260045260246000fd5b602002602001019073ffffffffffffffffffffffffffffffffffffffff16908173ffffffffffffffffffffffffffffffffffffffff16815250508060020160009054906101000a900473ffffffffffffffffffffffffffffffffffffffff1685838151811061104e577f4e487b7100000000000000000000000000000000000000000000000000000000600052603260045260246000fd5b602002602001019073ffffffffffffffffffffffffffffffffffffffff16908173ffffffffffffffffffffffffffffffffffffffff16815250508060020160149054906101000a900460ff168483815181106110d3577f4e487b7100000000000000000000000000000000000000000000000000000000600052603260045260246000fd5b60200260200101906002811115611113577f4e487b7100000000000000000000000000000000000000000000000000000000600052602160045260246000fd5b9081600281111561114d577f4e487b7100000000000000000000000000000000000000000000000000000000600052602160045260246000fd5b8152505050808061115d90612bd9565b915050610e74565b50509091929394565b60008060009054906101000a900473ffffffffffffffffffffffffffffffffffffffff16905090565b600480546111a490612ba7565b80601f01602080910402602001604051908101604052809291908181526020018280546111d090612ba7565b801561121d5780601f106111f25761010080835404028352916020019161121d565b820191906000526020600020905b81548152906001019060200180831161120057829003601f168201915b505050505081565b6003818154811061123557600080fd5b90600052602060002090600302016000915090508060000154908060010160009054906101000a900473ffffffffffffffffffffffffffffffffffffffff16908060020160009054906101000a900473ffffffffffffffffffffffffffffffffffffffff16908060020160149054906101000a900460ff16905084565b600960009054906101000a900473ffffffffffffffffffffffffffffffffffffffff1681565b600260205281600052604060002081815481106112f457600080fd5b9060005260206000209060050201600091509150508060000154908060010154908060020160009054906101000a900473ffffffffffffffffffffffffffffffffffffffff169080600301805461134a90612ba7565b80601f016020809104026020016040519081016040528092919081815260200182805461137690612ba7565b80156113c35780601f10611398576101008083540402835291602001916113c3565b820191906000526020600020905b8154815290600101906020018083116113a657829003601f168201915b5050505050908060040160009054906101000a900473ffffffffffffffffffffffffffffffffffffffff16905085565b6113fb611e25565b60026001541415611441576040517f08c379a000000000000000000000000000000000000000000000000000000000815260040161143890612807565b60405180910390fd5b60026001819055506003805490508110611490576040517f08c379a000000000000000000000000000000000000000000000000000000000815260040161148790612847565b60405180910390fd5b6000600382815481106114cc577f4e487b7100000000000000000000000000000000000000000000000000000000600052603260045260246000fd5b9060005260206000209060030201905060006002811115611516577f4e487b7100000000000000000000000000000000000000000000000000000000600052602160045260246000fd5b8160020160149054906101000a900460ff166002811115611560577f4e487b7100000000000000000000000000000000000000000000000000000000600052602160045260246000fd5b146115a0576040517f08c379a0000000000000000000000000000000000000000000000000000000008152600401611597906127a7565b60405180910390fd5b80600001544710156115e7576040517f08c379a00000000000000000000000000000000000000000000000000000000081526004016115de90612827565b60405180910390fd5b6116008160000154600854611f6790919063ffffffff16565b60088190555060018160020160146101000a81548160ff02191690836002811115611654577f4e487b7100000000000000000000000000000000000000000000000000000000600052602160045260246000fd5b02179055508060010160009054906101000a900473ffffffffffffffffffffffffffffffffffffffff1673ffffffffffffffffffffffffffffffffffffffff166108fc82600001549081150290604051600060405180830381858888f193505050501580156116c7573d6000803e3d6000fd5b50428160020160009054906101000a900473ffffffffffffffffffffffffffffffffffffffff1673ffffffffffffffffffffffffffffffffffffffff168260010160009054906101000a900473ffffffffffffffffffffffffffffffffffffffff1673ffffffffffffffffffffffffffffffffffffffff167f533ca94f7a1d6423d4b59b9a7bd0225c6e15af6eedcb566408c3f6942bdfe582846000015460046040516117759291906128c7565b60405180910390a4506001808190555050565b60085481565b60006040518060a001604052803481526020014281526020013373ffffffffffffffffffffffffffffffffffffffff168152602001600480546117d090612ba7565b80601f01602080910402602001604051908101604052809291908181526020018280546117fc90612ba7565b80156118495780601f1061181e57610100808354040283529160200191611849565b820191906000526020600020905b81548152906001019060200180831161182c57829003601f168201915b50505050508152602001600960009054906101000a900473ffffffffffffffffffffffffffffffffffffffff1673ffffffffffffffffffffffffffffffffffffffff168152509050600260003373ffffffffffffffffffffffffffffffffffffffff1673ffffffffffffffffffffffffffffffffffffffff168152602001908152602001600020819080600181540180825580915050600190039060005260206000209060050201600090919091909150600082015181600001556020820151816001015560408201518160020160006101000a81548173ffffffffffffffffffffffffffffffffffffffff021916908373ffffffffffffffffffffffffffffffffffffffff1602179055506060820151816003019080519060200190611971929190611f9b565b5060808201518160040160006101000a81548173ffffffffffffffffffffffffffffffffffffffff021916908373ffffffffffffffffffffffffffffffffffffffff1602179055505050600a60008154809291906119ce90612bd9565b91905055506119e834600854611f7d90919063ffffffff16565b600881905550600960009054906101000a900473ffffffffffffffffffffffffffffffffffffffff1673ffffffffffffffffffffffffffffffffffffffff16423373ffffffffffffffffffffffffffffffffffffffff167f385b33bb5da3a6a3451f9ff1a8da6d5a24660f02a2d129d92093b3fc76df707f346004604051611a719291906128c7565b60405180910390a450565b806008541015611ac1576040517f08c379a0000000000000000000000000000000000000000000000000000000008152600401611ab8906127e7565b60405180910390fd5b600360405180608001604052808381526020018473ffffffffffffffffffffffffffffffffffffffff168152602001600960009054906101000a900473ffffffffffffffffffffffffffffffffffffffff1673ffffffffffffffffffffffffffffffffffffffff16815260200160006002811115611b68577f4e487b7100000000000000000000000000000000000000000000000000000000600052602160045260246000fd5b81525090806001815401808255809150506001900390600052602060002090600302016000909190919091506000820151816000015560208201518160010160006101000a81548173ffffffffffffffffffffffffffffffffffffffff021916908373ffffffffffffffffffffffffffffffffffffffff16021790555060408201518160020160006101000a81548173ffffffffffffffffffffffffffffffffffffffff021916908373ffffffffffffffffffffffffffffffffffffffff16021790555060608201518160020160146101000a81548160ff02191690836002811115611c7d577f4e487b7100000000000000000000000000000000000000000000000000000000600052602160045260246000fd5b0217905550505042600960009054906101000a900473ffffffffffffffffffffffffffffffffffffffff1673ffffffffffffffffffffffffffffffffffffffff168373ffffffffffffffffffffffffffffffffffffffff167f54a9c83be540f00741b15590dcfdbbd18807cc3c832b6e77c01f8fbc6d316605846004604051611d079291906128c7565b60405180910390a45050565b611d1b611e25565b600073ffffffffffffffffffffffffffffffffffffffff168173ffffffffffffffffffffffffffffffffffffffff161415611d8b576040517f08c379a0000000000000000000000000000000000000000000000000000000008152600401611d8290612787565b60405180910390fd5b611d9481611ea3565b50565b60058054611da490612ba7565b80601f0160208091040260200160405190810160405280929190818152602001828054611dd090612ba7565b8015611e1d5780601f10611df257610100808354040283529160200191611e1d565b820191906000526020600020905b815481529060010190602001808311611e0057829003601f168201915b505050505081565b611e2d611f93565b73ffffffffffffffffffffffffffffffffffffffff16611e4b61116e565b73ffffffffffffffffffffffffffffffffffffffff1614611ea1576040517f08c379a0000000000000000000000000000000000000000000000000000000008152600401611e98906127c7565b60405180910390fd5b565b60008060009054906101000a900473ffffffffffffffffffffffffffffffffffffffff169050816000806101000a81548173ffffffffffffffffffffffffffffffffffffffff021916908373ffffffffffffffffffffffffffffffffffffffff1602179055508173ffffffffffffffffffffffffffffffffffffffff168173ffffffffffffffffffffffffffffffffffffffff167f8be0079c531659141344cd1fd0a4f28419497f9722a3daafe3b4186f6b6457e060405160405180910390a35050565b60008183611f759190612acd565b905092915050565b60008183611f8b9190612a77565b905092915050565b600033905090565b828054611fa790612ba7565b90600052602060002090601f016020900481019282611fc95760008555612010565b82601f10611fe257805160ff1916838001178555612010565b82800160010185558215612010579182015b8281111561200f578251825591602001919060010190611ff4565b5b50905061201d9190612021565b5090565b5b8082111561203a576000816000905550600101612022565b5090565b60008135905061204d81612cd4565b92915050565b60008135905061206281612ceb565b92915050565b60008135905061207781612d02565b92915050565b60006020828403121561208f57600080fd5b600061209d8482850161203e565b91505092915050565b600080604083850312156120b957600080fd5b60006120c785828601612053565b92505060206120d885828601612068565b9150509250929050565b600080604083850312156120f557600080fd5b60006121038582860161203e565b925050602061211485828601612068565b9150509250929050565b60006020828403121561213057600080fd5b600061213e84828501612068565b91505092915050565b600061215383836121b2565b60208301905092915050565b600061216b838361235f565b60208301905092915050565b6000612183838361237d565b905092915050565b60006121978383612655565b60208301905092915050565b6121ac81612b13565b82525050565b6121bb81612b01565b82525050565b6121ca81612b01565b82525050565b60006121db826129a6565b6121e58185612a11565b93506121f083612951565b8060005b838110156122215781516122088882612147565b9750612213836129dd565b9250506001810190506121f4565b5085935050505092915050565b6000612239826129b1565b6122438185612a44565b935061224e83612961565b8060005b8381101561227f578151612266888261215f565b9750612271836129ea565b925050600181019050612252565b5085935050505092915050565b6000612297826129bc565b6122a18185612a22565b9350836020820285016122b385612971565b8060005b858110156122ef57848403895281516122d08582612177565b94506122db836129f7565b925060208a019950506001810190506122b7565b50829750879550505050505092915050565b600061230c826129c7565b6123168185612a33565b935061232183612981565b8060005b83811015612352578151612339888261218b565b975061234483612a04565b925050600181019050612325565b5085935050505092915050565b61236881612b62565b82525050565b61237781612b62565b82525050565b6000612388826129d2565b6123928185612a55565b93506123a2818560208601612b74565b6123ab81612caf565b840191505092915050565b60006123c1826129d2565b6123cb8185612a66565b93506123db818560208601612b74565b6123e481612caf565b840191505092915050565b600081546123fc81612ba7565b6124068186612a66565b94506001821660008114612421576001811461243357612466565b60ff1983168652602086019350612466565b61243c85612991565b60005b8381101561245e5781548189015260018201915060208101905061243f565b808801955050505b50505092915050565b600061247c602683612a66565b91507f4f776e61626c653a206e6577206f776e657220697320746865207a65726f206160008301527f64647265737300000000000000000000000000000000000000000000000000006020830152604082019050919050565b60006124e2601683612a66565b91507f52657175657374206973206e6f742070656e64696e67000000000000000000006000830152602082019050919050565b6000612522602083612a66565b91507f4f776e61626c653a2063616c6c6572206973206e6f7420746865206f776e65726000830152602082019050919050565b6000612562601e83612a66565b91507f496e73756666696369656e742066756e647320666f72207265717565737400006000830152602082019050919050565b60006125a2601f83612a66565b91507f5265656e7472616e637947756172643a207265656e7472616e742063616c6c006000830152602082019050919050565b60006125e2601d83612a66565b91507f496e73756666696369656e7420636f6e74726163742062616c616e63650000006000830152602082019050919050565b6000612622601283612a66565b91507f496e76616c6964207265717565737420494400000000000000000000000000006000830152602082019050919050565b61265e81612b58565b82525050565b61266d81612b58565b82525050565b600060208201905061268860008301846121c1565b92915050565b600060a08201905081810360008301526126a88188612301565b905081810360208301526126bc8187612301565b905081810360408301526126d081866121d0565b905081810360608301526126e481856121d0565b905081810360808301526126f8818461222e565b90509695505050505050565b6000608082019050818103600083015261271e8187612301565b905081810360208301526127328186612301565b90508181036040830152612746818561228c565b9050818103606083015261275a81846121d0565b905095945050505050565b6000602082019050818103600083015261277f81846123b6565b905092915050565b600060208201905081810360008301526127a08161246f565b9050919050565b600060208201905081810360008301526127c0816124d5565b9050919050565b600060208201905081810360008301526127e081612515565b9050919050565b6000602082019050818103600083015261280081612555565b9050919050565b6000602082019050818103600083015261282081612595565b9050919050565b60006020820190508181036000830152612840816125d5565b9050919050565b6000602082019050818103600083015261286081612615565b9050919050565b600060208201905061287c6000830184612664565b92915050565b60006080820190506128976000830187612664565b6128a460208301866121a3565b6128b160408301856121c1565b6128be606083018461236e565b95945050505050565b60006040820190506128dc6000830185612664565b81810360208301526128ee81846123ef565b90509392505050565b600060a08201905061290c6000830188612664565b6129196020830187612664565b61292660408301866121c1565b818103606083015261293881856123b6565b905061294760808301846121c1565b9695505050505050565b6000819050602082019050919050565b6000819050602082019050919050565b6000819050602082019050919050565b6000819050602082019050919050565b60008190508160005260206000209050919050565b600081519050919050565b600081519050919050565b600081519050919050565b600081519050919050565b600081519050919050565b6000602082019050919050565b6000602082019050919050565b6000602082019050919050565b6000602082019050919050565b600082825260208201905092915050565b600082825260208201905092915050565b600082825260208201905092915050565b600082825260208201905092915050565b600082825260208201905092915050565b600082825260208201905092915050565b6000612a8282612b58565b9150612a8d83612b58565b9250827fffffffffffffffffffffffffffffffffffffffffffffffffffffffffffffffff03821115612ac257612ac1612c22565b5b828201905092915050565b6000612ad882612b58565b9150612ae383612b58565b925082821015612af657612af5612c22565b5b828203905092915050565b6000612b0c82612b38565b9050919050565b6000612b1e82612b38565b9050919050565b6000819050612b3382612cc0565b919050565b600073ffffffffffffffffffffffffffffffffffffffff82169050919050565b6000819050919050565b6000612b6d82612b25565b9050919050565b60005b83811015612b92578082015181840152602081019050612b77565b83811115612ba1576000848401525b50505050565b60006002820490506001821680612bbf57607f821691505b60208210811415612bd357612bd2612c80565b5b50919050565b6000612be482612b58565b91507fffffffffffffffffffffffffffffffffffffffffffffffffffffffffffffffff821415612c1757612c16612c22565b5b600182019050919050565b7f4e487b7100000000000000000000000000000000000000000000000000000000600052601160045260246000fd5b7f4e487b7100000000000000000000000000000000000000000000000000000000600052602160045260246000fd5b7f4e487b7100000000000000000000000000000000000000000000000000000000600052602260045260246000fd5b6000601f19601f8301169050919050565b60038110612cd157612cd0612c51565b5b50565b612cdd81612b01565b8114612ce857600080fd5b50565b612cf481612b13565b8114612cff57600080fd5b50565b612d0b81612b58565b8114612d1657600080fd5b5056fea26469706673582212205eea45be78d30de18fdd107ea26710a666c98e8a3ed1b030242b7a87325b941f64736f6c63430008000033",
  "immutableReferences": {},
  "source": "// SPDX-License-Identifier: MIT\npragma solidity ^0.8.0;\n\nimport \"@openzeppelin/contracts/access/Ownable.sol\";\nimport \"@openzeppelin/contracts/utils/math/SafeMath.sol\";\nimport \"@openzeppelin/contracts/security/ReentrancyGuard.sol\";\n\ncontract Fundraiser is Ownable, ReentrancyGuard {\n    using SafeMath for uint256;\n\n    struct Donation {\n        uint256 value;\n        uint256 date;\n        address donor;\n        string fundName;\n        address ngoAddress;\n    }\n\n    struct FundsRequest {\n        uint256 amount;\n        address payable beneficiary;\n        address ngoAddress;\n        RequestStatus status;\n    }\n\n    enum RequestStatus {\n        Pending,\n        Approved,\n        Rejected\n    }\n\n    mapping(address => Donation[]) public _userDonations;\n    FundsRequest[] public _requests;\n    event DonationReceived(\n        address indexed donor,\n        uint256 value,\n        uint256 indexed date,\n        string fundName,\n        address indexed ngoAddress\n    );\n    event RequestCreated(\n        address indexed beneficiary,\n        uint256 value,\n        address indexed ngoAddress,\n        string fundName,\n        uint256 indexed date\n    );\n    event RequestApproved(\n        address indexed beneficiary,\n        uint256 value,\n        address indexed ngoAddress,\n        string fundName,\n        uint256 indexed date\n    );\n    event RequestRejected(\n        address indexed beneficiary,\n        uint256 value,\n        address indexed ngoAddress,\n        string fundName,\n        uint256 indexed date\n    );\n\n    string public fundName;\n    string public image;\n    string public description;\n    uint256 public goalAmount;\n    uint256 public totalDonations;\n    address public ngoAddress;\n    uint256 public donationsCount;\n\n    constructor(\n        string memory _name,\n        string memory _image,\n        string memory _description,\n        uint256 _goalAmount,\n        address _custodian // This is the address of the user who created the fund\n    ) {\n        fundName = _name;\n        image = _image;\n        description = _description;\n        ngoAddress = _custodian;\n        goalAmount = _goalAmount;\n        _transferOwnership(_custodian); //  This is the address of the user who created the fund\n    }\n\n    function myDonationsCount() public view returns (uint256) {\n        return _userDonations[msg.sender].length;\n    }\n\n    function donate() public payable {\n        Donation memory donation = Donation({\n            value: msg.value,\n            date: block.timestamp,\n            donor: msg.sender,\n            fundName: fundName,\n            ngoAddress: ngoAddress\n        });\n        _userDonations[msg.sender].push(donation);\n        donationsCount++;\n        totalDonations = totalDonations.add(msg.value);\n        emit DonationReceived(\n            msg.sender,\n            msg.value,\n            block.timestamp,\n            fundName,\n            ngoAddress\n        );\n    }\n\n    function allRequests()\n        external\n        view\n        returns (\n            uint256[] memory requestID,\n            uint256[] memory amounts,\n            address[] memory beneficiaries,\n            address[] memory ngoAddresses,\n            RequestStatus[] memory statuses\n        )\n    {\n        uint256 count = _requests.length;\n        requestID = new uint256[](count); // Initialize the requestID array\n        amounts = new uint256[](count);\n        beneficiaries = new address[](count);\n        ngoAddresses = new address[](count);\n        statuses = new RequestStatus[](count);\n\n        for (uint256 i = 0; i < count; i++) {\n            FundsRequest storage request = _requests[i];\n            requestID[i] = i; // Set the request ID\n            amounts[i] = request.amount;\n            beneficiaries[i] = request.beneficiary;\n            ngoAddresses[i] = request.ngoAddress;\n            statuses[i] = request.status;\n        }\n    }\n\n    function myDonations()\n        public\n        view\n        returns (\n            uint256[] memory values,\n            uint256[] memory dates,\n            string[] memory fundNames,\n            address[] memory ngoAddresses\n        )\n    {\n        uint256 count = myDonationsCount();\n        values = new uint256[](count);\n        dates = new uint256[](count);\n        fundNames = new string[](count);\n        ngoAddresses = new address[](count);\n\n        for (uint256 i = 0; i < count; i++) {\n            Donation storage donation = _userDonations[msg.sender][i];\n            values[i] = donation.value;\n            dates[i] = donation.date;\n            fundNames[i] = donation.fundName;\n            ngoAddresses[i] = donation.ngoAddress;\n        }\n    }\n\n    function createRequest(\n        address payable _beneficiary,\n        uint256 _requestAmount\n    ) public {\n        require(\n            totalDonations >= _requestAmount,\n            \"Insufficient funds for request\"\n        );\n\n        _requests.push(\n            FundsRequest({\n                amount: _requestAmount,\n                beneficiary: _beneficiary,\n                ngoAddress: ngoAddress,\n                status: RequestStatus.Pending\n            })\n        );\n        emit RequestCreated(\n            _beneficiary,\n            _requestAmount,\n            ngoAddress,\n            fundName,\n            block.timestamp\n        );\n    }\n\n    function approveRequest(uint256 requestId) public onlyOwner nonReentrant {\n        require(requestId < _requests.length, \"Invalid request ID\");\n        FundsRequest storage request = _requests[requestId];\n        require(\n            request.status == RequestStatus.Pending,\n            \"Request is not pending\"\n        );\n        require(\n            address(this).balance >= request.amount,\n            \"Insufficient contract balance\"\n        );\n        totalDonations = totalDonations.sub(request.amount);\n        request.status = RequestStatus.Approved;\n        request.beneficiary.transfer(request.amount);\n\n        emit RequestApproved(\n            request.beneficiary,\n            request.amount,\n            request.ngoAddress,\n            fundName,\n            block.timestamp\n        );\n    }\n\n    function rejectRequest(uint256 requestId) public onlyOwner {\n        require(requestId < _requests.length, \"Invalid request ID\");\n        FundsRequest storage request = _requests[requestId];\n        require(\n            request.status == RequestStatus.Pending,\n            \"Request is not pending\"\n        );\n\n        request.status = RequestStatus.Rejected;\n\n        emit RequestRejected(\n            request.beneficiary,\n            request.amount,\n            request.ngoAddress,\n            fundName,\n            block.timestamp\n        );\n    }\n}\n",
  "sourcePath": "/Users/usg1103/Downloads/term7/DApp/contracts/Fundraiser.sol",
  "compiler": {
    "name": "solc",
    "version": "0.8.0+commit.c7dfd78e.Emscripten.clang"
  },
  "schemaVersion": "3.4.3",
  "updatedAt": "2023-12-04T20:01:35.937Z",
  "devdoc": {
    "kind": "dev",
    "methods": {
      "owner()": {
        "details": "Returns the address of the current owner."
      },
      "renounceOwnership()": {
        "details": "Leaves the contract without owner. It will not be possible to call `onlyOwner` functions anymore. Can only be called by the current owner. NOTE: Renouncing ownership will leave the contract without an owner, thereby removing any functionality that is only available to the owner."
      },
      "transferOwnership(address)": {
        "details": "Transfers ownership of the contract to a new account (`newOwner`). Can only be called by the current owner."
      }
    },
    "version": 1
  },
  "userdoc": {
    "kind": "user",
    "methods": {},
    "version": 1
  }
}