{
  "contractName": "UserAccessControl",
  "abi": [
    {
      "inputs": [],
      "stateMutability": "nonpayable",
      "type": "constructor"
    },
    {
      "anonymous": false,
      "inputs": [
        {
          "indexed": true,
          "internalType": "address",
          "name": "user",
          "type": "address"
        },
        {
          "indexed": false,
          "internalType": "enum UserAccessControl.UserRole",
          "name": "role",
          "type": "uint8"
        }
      ],
      "name": "UserRegistered",
      "type": "event"
    },
    {
      "inputs": [],
      "name": "admin",
      "outputs": [
        {
          "internalType": "address",
          "name": "",
          "type": "address"
        }
      ],
      "stateMutability": "view",
      "type": "function",
      "constant": true
    },
    {
      "inputs": [
        {
          "internalType": "address",
          "name": "",
          "type": "address"
        }
      ],
      "name": "users",
      "outputs": [
        {
          "internalType": "enum UserAccessControl.UserRole",
          "name": "role",
          "type": "uint8"
        },
        {
          "internalType": "bool",
          "name": "isRegistered",
          "type": "bool"
        }
      ],
      "stateMutability": "view",
      "type": "function",
      "constant": true
    },
    {
      "inputs": [
        {
          "internalType": "address",
          "name": "user",
          "type": "address"
        },
        {
          "internalType": "enum UserAccessControl.UserRole",
          "name": "role",
          "type": "uint8"
        }
      ],
      "name": "registerUser",
      "outputs": [],
      "stateMutability": "nonpayable",
      "type": "function"
    },
    {
      "inputs": [
        {
          "internalType": "address",
          "name": "user",
          "type": "address"
        }
      ],
      "name": "isUserRegistered",
      "outputs": [
        {
          "internalType": "bool",
          "name": "",
          "type": "bool"
        }
      ],
      "stateMutability": "view",
      "type": "function",
      "constant": true
    },
    {
      "inputs": [
        {
          "internalType": "address",
          "name": "user",
          "type": "address"
        }
      ],
      "name": "getUserRole",
      "outputs": [
        {
          "internalType": "enum UserAccessControl.UserRole",
          "name": "",
          "type": "uint8"
        }
      ],
      "stateMutability": "view",
      "type": "function",
      "constant": true
    },
    {
      "inputs": [
        {
          "internalType": "address",
          "name": "user",
          "type": "address"
        },
        {
          "internalType": "enum UserAccessControl.UserRole",
          "name": "role",
          "type": "uint8"
        }
      ],
      "name": "setUser",
      "outputs": [],
      "stateMutability": "nonpayable",
      "type": "function"
    }
  ],
  "bytecode": "0x608060405234801561001057600080fd5b5033600160006101000a81548173ffffffffffffffffffffffffffffffffffffffff021916908373ffffffffffffffffffffffffffffffffffffffff160217905550610aba806100616000396000f3fe608060405234801561001057600080fd5b50600436106100625760003560e01c8063163f752214610067578063278208511461009757806351d031ee146100c75780639e9fa097146100e3578063a87430ba146100ff578063f851a44014610130575b600080fd5b610081600480360381019061007c919061077a565b61014e565b60405161008e91906108e7565b60405180910390f35b6100b160048036038101906100ac919061077a565b6101a6565b6040516100be9190610902565b60405180910390f35b6100e160048036038101906100dc91906107a3565b61028c565b005b6100fd60048036038101906100f891906107a3565b610474565b005b6101196004803603810190610114919061077a565b6106ec565b60405161012792919061091d565b60405180910390f35b61013861072a565b60405161014591906108cc565b60405180910390f35b60008060008373ffffffffffffffffffffffffffffffffffffffff1673ffffffffffffffffffffffffffffffffffffffff16815260200190815260200160002060000160019054906101000a900460ff169050919050565b60008060008373ffffffffffffffffffffffffffffffffffffffff1673ffffffffffffffffffffffffffffffffffffffff16815260200190815260200160002060000160019054906101000a900460ff16610236576040517f08c379a000000000000000000000000000000000000000000000000000000000815260040161022d90610966565b60405180910390fd5b6000808373ffffffffffffffffffffffffffffffffffffffff1673ffffffffffffffffffffffffffffffffffffffff16815260200190815260200160002060000160009054906101000a900460ff169050919050565b6000808373ffffffffffffffffffffffffffffffffffffffff1673ffffffffffffffffffffffffffffffffffffffff16815260200190815260200160002060000160019054906101000a900460ff161561031b576040517f08c379a000000000000000000000000000000000000000000000000000000000815260040161031290610946565b60405180910390fd5b604051806040016040528082600281111561035f577f4e487b7100000000000000000000000000000000000000000000000000000000600052602160045260246000fd5b8152602001600115158152506000808473ffffffffffffffffffffffffffffffffffffffff1673ffffffffffffffffffffffffffffffffffffffff16815260200190815260200160002060008201518160000160006101000a81548160ff021916908360028111156103fa577f4e487b7100000000000000000000000000000000000000000000000000000000600052602160045260246000fd5b021790555060208201518160000160016101000a81548160ff0219169083151502179055509050508173ffffffffffffffffffffffffffffffffffffffff167f8e18574f8a7333e6a87112742a55853a643e2f0550f4e1a3a2c3f1bb2994441d826040516104689190610902565b60405180910390a25050565b600160009054906101000a900473ffffffffffffffffffffffffffffffffffffffff1673ffffffffffffffffffffffffffffffffffffffff163373ffffffffffffffffffffffffffffffffffffffff1614610504576040517f08c379a00000000000000000000000000000000000000000000000000000000081526004016104fb90610986565b60405180910390fd5b6000808373ffffffffffffffffffffffffffffffffffffffff1673ffffffffffffffffffffffffffffffffffffffff16815260200190815260200160002060000160019054906101000a900460ff1615610593576040517f08c379a000000000000000000000000000000000000000000000000000000000815260040161058a90610946565b60405180910390fd5b60405180604001604052808260028111156105d7577f4e487b7100000000000000000000000000000000000000000000000000000000600052602160045260246000fd5b8152602001600115158152506000808473ffffffffffffffffffffffffffffffffffffffff1673ffffffffffffffffffffffffffffffffffffffff16815260200190815260200160002060008201518160000160006101000a81548160ff02191690836002811115610672577f4e487b7100000000000000000000000000000000000000000000000000000000600052602160045260246000fd5b021790555060208201518160000160016101000a81548160ff0219169083151502179055509050508173ffffffffffffffffffffffffffffffffffffffff167f8e18574f8a7333e6a87112742a55853a643e2f0550f4e1a3a2c3f1bb2994441d826040516106e09190610902565b60405180910390a25050565b60006020528060005260406000206000915090508060000160009054906101000a900460ff16908060000160019054906101000a900460ff16905082565b600160009054906101000a900473ffffffffffffffffffffffffffffffffffffffff1681565b60008135905061075f81610a5d565b92915050565b60008135905061077481610a74565b92915050565b60006020828403121561078c57600080fd5b600061079a84828501610750565b91505092915050565b600080604083850312156107b657600080fd5b60006107c485828601610750565b92505060206107d585828601610765565b9150509250929050565b6107e8816109b7565b82525050565b6107f7816109c9565b82525050565b61080681610a08565b82525050565b60006108196017836109a6565b91507f5573657220616c726561647920726567697374657265640000000000000000006000830152602082019050919050565b60006108596014836109a6565b91507f55736572206e6f7420726567697374657265642e0000000000000000000000006000830152602082019050919050565b6000610899600e836109a6565b91507f4e6f7420617574686f72697a65640000000000000000000000000000000000006000830152602082019050919050565b60006020820190506108e160008301846107df565b92915050565b60006020820190506108fc60008301846107ee565b92915050565b600060208201905061091760008301846107fd565b92915050565b600060408201905061093260008301856107fd565b61093f60208301846107ee565b9392505050565b6000602082019050818103600083015261095f8161080c565b9050919050565b6000602082019050818103600083015261097f8161084c565b9050919050565b6000602082019050818103600083015261099f8161088c565b9050919050565b600082825260208201905092915050565b60006109c2826109e8565b9050919050565b60008115159050919050565b60008190506109e382610a49565b919050565b600073ffffffffffffffffffffffffffffffffffffffff82169050919050565b6000610a13826109d5565b9050919050565b7f4e487b7100000000000000000000000000000000000000000000000000000000600052602160045260246000fd5b60038110610a5a57610a59610a1a565b5b50565b610a66816109b7565b8114610a7157600080fd5b50565b60038110610a8157600080fd5b5056fea26469706673582212200ded6498370fcab45cb1274efa888cdd46750f1d6f2c48da0ec2eab7d31cdee964736f6c63430008000033",
  "immutableReferences": {},
  "source": "// SPDX-License-Identifier: MIT\npragma solidity ^0.8.0;\n\ncontract UserAccessControl {\n    enum UserRole { Donor, Beneficiary, NGO }\n\n    struct User {\n        UserRole role;\n        bool isRegistered;\n    }\n\n    mapping(address => User) public users;\n    address public admin;\n\n    event UserRegistered(address indexed user, UserRole role);\n\n    constructor() {\n        admin = msg.sender;\n    }\n\n    modifier onlyAdmin {\n        require(msg.sender == admin, \"Not authorized\");\n        _;\n    }\n\n    function registerUser(address user, UserRole role) public onlyAdmin {\n        require(!users[user].isRegistered, \"User already registered\");\n        users[user] = User(role, true);\n        emit UserRegistered(user, role);\n    }\n\n   \n    function isUserRegistered(address user) public view returns (bool) {\n        return users[user].isRegistered;\n    }\n\n    function getUserRole(address user) public view returns (UserRole) {\n        require(users[user].isRegistered, \"User not registered.\");\n        return users[user].role;\n\n\n\n        \n    }\n\n    function setUser(address user, UserRole role) public {\n        require(!users[user].isRegistered, \"User already registered\");\n        users[user] = User(role, true);\n        emit UserRegistered(user, role);\n    }\n\n}",
  "sourcePath": "/Users/usg1103/Downloads/term7/DApp/contracts/UserAccessControl.sol",
  "compiler": {
    "name": "solc",
    "version": "0.8.0+commit.c7dfd78e.Emscripten.clang"
  },
  "schemaVersion": "3.4.3",
  "updatedAt": "2023-12-04T20:05:59.585Z",
  "networkType": "ethereum",
  "devdoc": {
    "kind": "dev",
    "methods": {},
    "version": 1
  },
  "userdoc": {
    "kind": "user",
    "methods": {},
    "version": 1
  }
}